:020000040800F2
:10000000C004002089150008F1140008F31400084A
:10001000F5140008F7140008F914000800000000A7
:10002000000000000000000000000000FB140008B9
:10003000FD14000800000000FF140008011500086E
:10004000A5150008A9150008AD150008B115000890
:10005000B5150008B9150008BD150008C115000840
:10006000C5150008C9150008CD150008D1150008F0
:10007000D5150008D9150008DD150008E1150008A0
:10008000E5150008E9150008ED150008F115000850
:10009000F5150008F9150008FD15000801160008FF
:1000A00005160008091600080D16000811160008AC
:1000B0000D15000815160008191600081D16000871
:1000C0002116000825160008291600082D1600081C
:1000D0003116000835160008391600083D160008CC
:1000E0004116000845160008491600087CB50400B2
:1000F00000202078C00740F18480DFF858060068AF
:1001000010F00C0004280BD0DFF84806006810F04F
:100110000C0008280ED1DFF83C060068C00309D5A2
:10012000DFF83406006880036BD56068002868D16A
:10013000012002E26068B0F5803F08D1DFF81806C0
:10014000006850F48030DFF81016086038E060680E
:10015000002810D1DFF80006006830F48030DFF8A6
:10016000F8150860DFF8F005006830F48020DFF84B
:10017000E815086024E06068B0F5A02F10D1DFF822
:10018000D805006850F48020DFF8CC150860DFF84F
:10019000C805006850F48030DFF8BC1508600FE037
:1001A000DFF8B405006830F48030DFF8AC15086083
:1001B000DFF8A405006830F48020DFF89C150860A3
:1001C000606800280ED000F0E5FA0500DFF8880529
:1001D0000068800315D400F0DDFA401B6528F5D3D4
:1001E0000320AAE100F0D6FA0500DFF86C050068EC
:1001F000800306D500F0CEFA401B6528F5D3032016
:100200009BE12078800726D5DFF84805006810F0CC
:100210000C0F0BD0DFF83C05006810F00C0008282C
:1002200033D1DFF830050068C0032ED4DFF828058D
:100230000068800704D52069012801D001207CE1F5
:10024000DFF81405006830F0F800616950EAC10079
:10025000DFF804150860207800074ED5A069002853
:1002600000F081800120DFF8FC14086000F092FAB1
:100270000500DFF8F404006880073BD400F08AFA38
:10028000401B0328F5D3032057E1206900281ED026
:100290000120DFF8D814086000F07CFA0500DFF8D0
:1002A000B8040068800706D400F074FA401B0328E5
:1002B000F5D3032041E1DFF8A004006830F0F80036
:1002C000616950EAC100DFF890140860C3E70020BC
:1002D000DFF89814086000F05DFA0500DFF8780494
:1002E00000688007B7D500F055FA401B0328F5D306
:1002F000032022E1012000F01BFA2078400740F1A2
:10030000B9800025DFF868040068C0000FD4DFF86A
:100310006004006850F08050DFF854140860DFF883
:100320005004006810F08050009000980125DFF81C
:1003300044040068C00529D4DFF83804006850F48C
:100340008070DFF83014086000F024FA0600DFF84F
:1003500024040068C00519D400F01CFA801B65282D
:10036000F5D30320E9E00020DFF8F813086000F07F
:1003700011FA0500DFF8F00300688007BDD500F032
:1003800009FA401B0328F5D30320D6E0E0680128D2
:1003900008D1DFF8E403006850F00100DFF8D8135B
:1003A000086037E0E068002810D1DFF8CC0300686F
:1003B00040084000DFF8C0130860DFF8BC030068A5
:1003C00030F00400DFF8B013086023E0E06805288F
:1003D00010D1DFF8A403006850F00400DFF8981390
:1003E0000860DFF89403006850F00100DFF888131C
:1003F00008600FE0DFF88003006840084000DFF885
:1004000078130860DFF87003006830F00400DFF84C
:1004100068130860E068002810D000F0BBF90600FF
:10042000DFF854030068800719D400F0B3F9801B8B
:1004300041F289318842F3D303207EE000F0AAF92B
:100440000600DFF834030068800708D500F0A2F941
:10045000801B41F289318842F3D303206DE0EDB275
:10046000012D07D1DFF80803006830F08050DFF875
:1004700000130860E06900285ED0DFF8D802006849
:1004800010F00C00082855D0E06902283FD1002068
:10049000DFF8E812086000F07DF90500DFF8B80227
:1004A0000068800106D500F075F9401B0328F5D3DC
:1004B000032042E0206AB0F5803F09D1DFF89402C2
:1004C000016831F40031A0680143DFF8880201605F
:1004D000DFF88002016831F47411206A0143606A18
:1004E0000143DFF8700201600120DFF8901208601C
:1004F00000F050F90400DFF86002006880011BD4AE
:1005000000F048F9001B0328F5D3032015E0002074
:10051000DFF86812086000F03DF90400DFF83802E7
:100520000068800108D500F035F9001B0328F5D3D9
:10053000032002E0012000E0002076BD70B5040039
:100540000D000020DFF83802006810F00700A84214
:1005500011D2DFF82C020068C008C0002843DFF881
:1005600020120860DFF81802006810F00700A842A7
:1005700001D00120A4E02078800709D5DFF8D4015C
:10058000016831F0F001A0680143DFF8C8010160A3
:100590002078C00759D56068012806D1DFF8B80176
:1005A0000068800312D401208AE06068022806D126
:1005B000DFF8A4010068800108D4012080E0DFF8A2
:1005C00098010068800701D4012079E0DFF88401F8
:1005D00001688908890060680143DFF878010160DB
:1005E00000F0D8F80600606801280ED1594800686C
:1005F00010F00C00042828D000F0CCF8801B41F249
:1006000089318842F2D303205AE0606802280ED173
:100610005048006810F00C00082816D000F0BAF816
:10062000801B41F289318842F2D3032048E04948D7
:10063000006810F00C0F08D000F0ACF8801B41F2FD
:1006400089318842F3D303203AE04D48006810F026
:10065000070085420ED24A480068C008C0002843FF
:10066000474908604648006810F00700A84201D0DA
:10067000012025E02078400707D53648016831F48D
:10068000E061E0680143334801602078000708D545
:100690003048006830F46050216950EAC1002D49AB
:1006A000086000F00EF837492A4A1268C2F30312B4
:1006B000895CC8402A490860002000F071F80020D9
:1006C00070BD00B585B001A82F49102200F08CF84C
:1006D0002E480088ADF800000020002000200020F7
:1006E00000201C48016811F00C00042802D00828E2
:1006F00002D017E0194816E001A8C1F38342805CDC
:10070000C9030CD56946134A1268C2F34042895C9A
:10071000124AB2FBF1F201001000484301E01C490B
:10072000484300E00D4805B000BD0D480068704723
:1007300081B00B490968C9084FF47A72B1FBF2F134
:100740004843009000BF0098411E00910028F9D155
:1007500001B07047041002400010024000127A00FD
:100760000000002080044242241002400000424267
:100770001C10024000700040201002406000424205
:100780000020024078150008681500086E0800086F
:1007900000093D0001480068704700BFAC00002020
:1007A00010B50400074800684FF47A71B0FBF1F00F
:1007B00000F0CAF8002221005FF0FF3000F0AEF830
:1007C000002010BD0000002062B38B0708D0521E2D
:1007D00011F8013B00F8013B00F024808B07F6D1B3
:1007E000830740F0208000BF103A07D330B4B1E84F
:1007F0003810103AA0E83810F9D230BC530724BFA3
:10080000B1E80810A0E8081044BF51F8043B40F8D4
:10081000043BD20724BF31F8022B20F8022B44BF3F
:100820000B7803707047121F17D35B0009D151F882
:10083000043B20F8023B1B0C121F20F8023BF6D2AF
:100840000BE051F8043B00F8013B1B0A20F8023B87
:100850001B0C121F00F8013BF3D238BF121D521EB1
:1008600024BF11F8013B00F8013BF8D870470102A2
:100870003F480068C0F302207047012210F01F01BA
:100880008A403C4940B2400941F82020704740B2BC
:10089000002808D50901384A40B210F00F00104472
:1008A00000F8041C03E00901344A40B211547047B7
:1008B00010B410F00700D0F10703052B01D3042377
:1008C00001E0D0F10703041D072C01D2002000E055
:1008D000C01E012414FA03F35B1E1940814001235A
:1008E00013FA00F0401E1040084310BC704780B55A
:1008F000411EB1F1807F01D301200EE0401E20494E
:1009000008600F215FF0FF30FFF7C1FF00201D4995
:10091000086007201C490860002002BD70B5040073
:100920000D0016000020FFF7A3FF32002900FFF79B
:10093000BFFF0100200040B2FFF7A9FF70BD80B5E6
:1009400040B2FFF79AFF01BD80B5FFF7D0FF02BDAF
:10095000042806D10C48006850F004000A490860D9
:1009600005E00948006830F0040007490860704756
:100970000CED00E000E100E018ED00E000E400E034
:1009800014E000E018E000E010E000E080B500F0C6
:1009900001F801BD7047000010B50400002C01D122
:1009A000012014E094F83D00002805D1002084F8CF
:1009B0003C00200000F020F9022084F83D00211DB9
:1009C000206800F09FF8012084F83D00002010BD51
:1009D000022180F83D100168096851F001010268A8
:1009E0001160012180F83D100020704710B504000F
:1009F000002094F83C00012801D1022081E0012070
:100A000084F83C00022084F83D002068806830F0C3
:100A1000770030F47F40226890600868002855D045
:100A2000102858D020285BD030285ED0402843D0F2
:100A300050282DD0602835D070280DD0B0F5805FBB
:100A400003D0B0F5005F16D054E020688068C0087D
:100A5000C000216888604DE0CB684A6889682068DA
:100A600000F0BDF82068806830F0770050F0770023
:100A7000216888603EE0CB684A688968206800F099
:100A8000AEF82068806850F480402168886031E0CA
:100A9000CA684968206800F06FF85021206800F0AB
:100AA00094F827E0CA684968206800F079F8602166
:100AB000206800F08AF81DE0CA684968206800F0E4
:100AC0005BF84021206800F080F813E000212068E6
:100AD00000F07BF80EE01021206800F076F809E0C5
:100AE0002021206800F071F804E03021206800F037
:100AF0006CF8FFE7012084F83D00002084F83C00FA
:100B0000002010BD00220368184A904208D0B0F1BE
:100B1000804F05D0164A904202D0164A904203D127
:100B200033F070034A681343104A904208D0B0F182
:100B3000804F05D00E4A904202D00E4A904203D117
:100B400033F44073CA68134333F080034A69134394
:100B500003608A68C2620A688262044A904201D1D4
:100B6000096901630121416170470000002C0140C7
:100B7000000400400008004010B400230023046A71
:100B8000036A5B085B000362836933F0F00353EA96
:100B9000021334F00A0421438361016210BC7047E0
:100BA00010B400230023036A33F010030362836947
:100BB000046A33F4704353EA023334F0A00454EA75
:100BC00001148361046210BC70470022826832F015
:100BD000700289B251F0070111438160704710B46F
:100BE0000024846834F47F44114351EA03212143F3
:100BF000816010BC7047000080B50068B0F1804F84
:100C000013D10A48006850F00100084908600748FD
:100C1000006810F0010000900098002200211C20C4
:100C2000FFF77CFE1C20FFF78AFE01BD1C1002406E
:100C3000F8B402000020002000200025002000233E
:100C40001AE0DFF8DC01006830EA0404DFF8D001C4
:100C5000046010E0DFF8CC010068A043DFF8C46155
:100C6000306048688002ECD5DFF8B40100680443C6
:100C7000DFF8AC0104605B1C102B80F0BB80012608
:100C80009E400C683440B442F5D14868002827D013
:100C900001281AD002281DD003282FD0112816D0E1
:100CA00012281AD0604FB8421AD0604FB84217D0FD
:100CB0005F4FB84214D05F4FB84211D05E4FB84278
:100CC0000ED05E4FB8420BD01AE0CD6818E0CD6868
:100CD0002D1D15E0CD68083512E0CD680C350FE00C
:100CE0008868002801D1042507E08868012802D11E
:100CF0000825166101E00825566101E00025FFE79F
:100D0000B4F5807F01D2100000E0101DB4F5807FA3
:100D100001D29E0002E0B3F10806B60007685FF05A
:100D20000F0C1CFA06FC37EA0C0715FA06F63E43D0
:100D300006604868C0009ED54148006850F0010038
:100D40003F4E30603E48006810F00100009000986F
:100D50003C481E00B60850F826600F2713F0030029
:100D6000C0B280008740BE433748824201D100278D
:100D70000FE03648824201D101270AE0344882421E
:100D800001D1022705E03348824201D1032700E068
:100D9000042713F00300C0B2800087403E43294877
:100DA0001F00BF0840F827604868C00305D52A48DF
:100DB00000682043284E306004E027480068A043C4
:100DC000254E30604868800305D5244800682043DC
:100DD000224E306004E021480068A0431F4E30607E
:100DE0004868C0027FF536AF0E48006820430D4EBC
:100DF000306036E7F1BC7047806889B2084201D0A4
:100E0000012000E00020C0B27047D2B2002A02D018
:100E100089B2016102E089B20904016170470000F2
:100E20000C040140080401400000111000001210E1
:100E300000002110000022100000311000003210CC
:100E4000181002400800014000080140000C014059
:100E5000001001400014014000040140040401405E
:100E600000B58FB0012005905FF48030069000201F
:100E700007900120099002200C905FF480300D90C3
:100E80005FF4E0100E9005A8FFF730F9002801D0BC
:100E900000F0F6F80F200090022001900020029050
:100EA0004FF4806003900020049002216846FFF711
:100EB00045FB002801D000F0E3F8FFF736FC4FF4C3
:100EC0007A71B0FBF1F0FFF73FFD0420FFF740FD22
:100ED000002200215FF0FF30FFF720FD0FB000BDC2
:100EE00080B502200090002301224FF400513C48BD
:100EF00000F001F801BD30B585B03A4CA0420CD1EC
:100F0000394C246854F00404374D2C60364C246866
:100F100014F004040094009C1EE0344CA0420CD158
:100F2000314C246854F008042F4D2C602E4C24685A
:100F300014F008040094009C0EE0294CA0420BD150
:100F4000294C246854F01004274D2C60264C24684A
:100F500014F010040094009C089C89B20191029244
:100F60000393049401A9FFF763FE05B030BD80B57B
:100F700086B05FF080401E49086047201C494860E9
:100F800000201B4988604FF6FF701949C860002097
:100F9000174908610020164988611548FFF7FCFCD5
:100FA000002801D000F06CF84FF48050029002A9A4
:100FB0000F48FFF71BFD002801D000F061F800206A
:100FC0000090002001906946094800F05BF8002875
:100FD00001D000F055F80648FFF7FAFC07B000BD55
:100FE000001001400008014018100240000C0140B0
:100FF0005400002038B5FFF733FFFFF771FFFFF70C
:10100000B6FF2021194800F06BF80121052000F0FF
:10101000EBF8040040F6B83000F0FEF8200000F0D5
:101020000BF90522124D21002800FFF7CDFB1048D7
:1010300040780F49097851EAC0110E4801800C48E8
:10104000C0780B49897851EAC0110B4801800848E3
:1010500001780748407841180548807841180448CD
:10106000C078411805480180D4E70000000C014019
:101070009C000020BA000020B8000020BC00002026
:10108000FEE7000090F83C20012A01D1022024E074
:10109000012280F83C20022280F83D20026852683C
:1010A00032F0700203685A60026853680A6813439A
:1010B000026853600268926832F0800203689A60A6
:1010C0000268926849680A4301688A60012180F8D1
:1010D0003D10002180F83C10002070470000000007
:1010E0001E4A10601D488180704780B501221B4850
:1010F00081881A480068FFF788FE01BD80B500228C
:101100001648818815480068FFF77FFE01BD80B54D
:101110000320009001230022104881880F480068B6
:10112000FFF7E9FE01BD80B50320009001230122F5
:101130000A48818809480068FFF7DDFE01BD80B5D7
:1011400000200648818805480068FFF755FE002802
:1011500001D0012000E00020C0B202BDA4000020A8
:1011600038B501254FF6FF74FFF7E9FF002803D1DA
:101170002000441E0028F7D1002C00D100252800B3
:10118000C0B232BD38B501254FF6FF74FFF7D7FF67
:10119000002803D02000441E0028F7D1002C00D1E5
:1011A00000252800C0B232BD70B5C51DED08AFF3F3
:1011B0000080ED00072D98BF0825164E346814B145
:1011C0002068A84208D200F0E3F800283060F4D18B
:1011D000AFF30080002070BD61193160451B0D60C8
:1011E000AFF30080204670BD38B5050007D04FF042
:1011F000FF30B0FBF5F0884201D2002032BD4D43F4
:101200002846FFF7D1FF04001CBF294600F0D6F89E
:10121000204632BDB000002031B5FFF7BBFA040014
:10122000009D15F1010F00D06D1CFFF7B3FA001BF4
:10123000A842FAD331BD000010B504000120FFF729
:1012400072FF0120FFF7E8FFFFF74FFF0120FFF7D4
:10125000E3FFFFF753FF0120FFF7DEFFFFF745FF36
:10126000FFF755FFFFF78EFFC0B2012801D1FFF74E
:1012700077FFC0B2012801D100F009F8C0B20128FF
:1012800004D105223F492000FFF79EFA10BD7CB52E
:101290002825002401206846002101600026FFF770
:1012A00071FF04E0384AF6B222F81610761C2900C5
:1012B0004D1EC9B2002925D0C0B2012806D1FFF7C2
:1012C0004FFF32490968496AADF80010C0B20128E1
:1012D000EDD1FFF757FF2D490968496AADF80210B3
:1012E000BDF80220BDF80010511A4A1E632AD9D356
:1012F000002905D5244AF6B222F81610761CD6E746
:101300000020D4E7F6B2282E05D0C0B2012802D1C1
:101310000020C0B276BDF6B2282EFAD1C0B20128A4
:10132000F7D15FF0FF3300221DE0174931F81210AA
:101330001F39312900D20124082192FBF1F501FB6C
:101340001521002900D15B1C0E495BB2C95C490024
:101350000C4D5BB2E9540B495BB2C95C2143094DAA
:101360005BB2E954521C282AD3DA074931F812102B
:101370000029DAD0044931F812101E29D5DA0024E8
:10138000DAE7000094000020040000205400002050
:101390000749086808B1002070470648C008C00027
:1013A00008600549C908C900091A0160704700BFF3
:1013B000B4000020C7040020C00800200144884277
:1013C00004D0002200F8012B8842FAD170470000B7
:1013D0001348006850F00100114908601148016885
:1013E000114801400F4801600D4801680F48014055
:1013F0000B4801600A48006830F480200849086002
:101400000848006830F4FE00064908605FF41F00D9
:10141000074908605FF000600649086070470000F7
:1014200000100240041002400000FFF8FFFFF6FE2B
:101430000810024008ED00E019E050F8042BD30733
:1014400044BFA9F101039A18091F0023042942F897
:10145000043BF9D25FEA817C134604D54FF0000CBF
:10146000A2F800C09B1CC90744BF0021197050F8A6
:10147000041B0029E1D1704710B450F8041B79B166
:101480000268436802440830DC0744BFA9F1010444
:10149000E31852F8044B43F8044B091FF9D1ECE769
:1014A00010BC704710B5074979441831064C7C448C
:1014B000163404E00A68081D114488470146A14219
:1014C000F8D110BD08000000280000006DFFFFFFEC
:1014D000BC00000004000020000000009DFFFFFF92
:1014E000040000006801000000000020000000006F
:1014F0007047FEE7FEE7FEE7FEE77047704770477C
:1015000080B500F005F8FFF741FA01BD7047000013
:1015100002480068401C014908607047AC00002088
:1015200000F00DF8002801D0FFF7BCFFAFF30080FA
:101530000020AFF30080FFF75DFD00F002F801200E
:10154000704700F001B800000746384600F002F886
:10155000FBE7000080B5AFF30080024A11001820BD
:10156000ABBEFBE7260002000203040506070809DC
:101570000A0B0C0D0E0F1010000000000000000000
:101580000102030406070809014880470148004793
:10159000D113000899150008AFF30080AFF3008065
:1015A000FFF7BEFFFFF7FEBFFFF7FEBFFFF7FEBF6F
:1015B000FFF7FEBFFFF7FEBFFFF7FEBFFFF7FEBF5F
:1015C000FFF7FEBFFFF7FEBFFFF7FEBFFFF7FEBF4F
:1015D000FFF7FEBFFFF7FEBFFFF7FEBFFFF7FEBF3F
:1015E000FFF7FEBFFFF7FEBFFFF7FEBFFFF7FEBF2F
:1015F000FFF7FEBFFFF7FEBFFFF7FEBFFFF7FEBF1F
:10160000FFF7FEBFFFF7FEBFFFF7FEBFFFF7FEBF0E
:10161000FFF7FEBFFFF7FEBFFFF7FEBFFFF7FEBFFE
:10162000FFF7FEBFFFF7FEBFFFF7FEBFFFF7FEBFEE
:10163000FFF7FEBFFFF7FEBFFFF7FEBFFFF7FEBFDE
:10164000FFF7FEBFFFF7FEBFFFF7FEBF00A24A0491
:040000050800159941
:00000001FF
