:020000040800F2
:100000006004002091100008F90F0008FB0F0008A1
:10001000FD0F0008FF0F000801100008000000009D
:1000200000000000000000000000000003100008B5
:100030000510000800000000071000080910000863
:10004000B5100008B9100008BD100008C110000864
:10005000C5100008C9100008CD100008D110000814
:10006000D5100008D9100008DD100008E1100008C4
:10007000E5100008E9100008ED100008F110000874
:10008000F5100008F9100008FD1000080111000823
:1000900005110008091100080D11000811110008D0
:1000A00015110008191100081D1100082111000880
:1000B0001510000825110008291100082D1100084D
:1000C0003111000835110008391100083D110008F0
:1000D0004111000845110008491100084D110008A0
:1000E0005111000855110008591100087CB5040091
:1000F00000202078C00740F18480DFF87006006897
:1001000010F00C0004280BD0DFF86006006810F037
:100110000C0008280ED1DFF854060068C00309D58A
:10012000DFF84C06006880036BD56068002868D152
:10013000012002E26068B0F5803F08D1DFF83006A8
:10014000006850F48030DFF82816086038E06068F6
:10015000002810D1DFF81806006830F48030DFF88E
:1001600010160860DFF80806006830F48020DFF819
:100170000016086024E06068B0F5A02F10D1DFF809
:10018000F005006850F48020DFF8E4150860DFF81F
:10019000E005006850F48030DFF8D41508600FE007
:1001A000DFF8CC05006830F48030DFF8C415086053
:1001B000DFF8BC05006830F48020DFF8B415086073
:1001C000606800280ED000F0F3FA0500DFF8A00503
:1001D0000068800315D400F0EBFA401B6528F5D3C6
:1001E0000320AAE100F0E4FA0500DFF884050068C6
:1001F000800306D500F0DCFA401B6528F5D3032008
:100200009BE12078800726D5DFF86005006810F0B4
:100210000C0F0BD0DFF85405006810F00C00082814
:1002200033D1DFF848050068C0032ED4DFF840055D
:100230000068800704D52069012801D001207CE1F5
:10024000DFF82C05006830F0F800616950EAC10061
:10025000DFF81C150860207800074ED5A06900283B
:1002600000F081800120DFF81415086000F0A0FA8A
:100270000500DFF80C05006880073BD400F098FA11
:10028000401B0328F5D3032057E1206900281ED026
:100290000120DFF8F014086000F08AFA0500DFF8AA
:1002A000D0040068800706D400F082FA401B0328BF
:1002B000F5D3032041E1DFF8B804006830F0F8001E
:1002C000616950EAC100DFF8A8140860C3E70020A4
:1002D000DFF8B014086000F06BFA0500DFF8900456
:1002E00000688007B7D500F063FA401B0328F5D3F8
:1002F000032022E1012000F026FA2078400740F197
:10030000B9800025DFF880040068C0000FD4DFF852
:100310007804006850F08050DFF86C140860DFF853
:100320006804006810F08050009000980125DFF804
:100330005C040068C00529D4DFF85004006850F45C
:100340008070DFF84814086000F032FA0600DFF829
:100350003C040068C00519D400F02AFA801B652807
:10036000F5D30320E9E00020DFF81014086000F066
:100370001FFA0500DFF8080400688007BDD500F00B
:1003800017FA401B0328F5D30320D6E0E0680128C4
:1003900008D1DFF8FC03006850F00100DFF8F0132B
:1003A000086037E0E068002810D1DFF8E403006857
:1003B00040084000DFF8D8130860DFF8D403006875
:1003C00030F00400DFF8C813086023E0E068052877
:1003D00010D1DFF8BC03006850F00400DFF8B01360
:1003E0000860DFF8AC03006850F00100DFF8A013EC
:1003F00008600FE0DFF89803006840084000DFF86D
:1004000090130860DFF88803006830F00400DFF81C
:1004100080130860E068002810D000F0C9F90600D9
:10042000DFF86C030068800719D400F0C1F9801B65
:1004300041F289318842F3D303207EE000F0B8F91D
:100440000600DFF84C030068800708D500F0B0F91B
:10045000801B41F289318842F3D303206DE0EDB275
:10046000012D07D1DFF82003006830F08050DFF85D
:1004700018130860E06900285ED0DFF8F002006819
:1004800010F00C00082855D0E06902283FD1002068
:10049000DFF80013086000F08BF90500DFF8D002E8
:1004A0000068800106D500F083F9401B0328F5D3CE
:1004B000032042E0206AB0F5803F09D1DFF8AC02AA
:1004C000016831F40031A0680143DFF8A002016047
:1004D000DFF89802016831F47411206A0143606A00
:1004E0000143DFF8880201600120DFF8A8120860EC
:1004F00000F05EF90400DFF87802006880011BD488
:1005000000F056F9001B0328F5D3032015E0002066
:10051000DFF88012086000F04BF90400DFF85002A9
:100520000068800108D500F043F9001B0328F5D3CB
:10053000032002E0012000E0002076BD70B5040039
:100540000D000020DFF85002006810F00700A842FC
:1005500011D2DFF844020068C008C0002843DFF869
:1005600038120860DFF83002006810F00700A84277
:1005700001D00120A4E02078800709D5DFF8EC0144
:10058000016831F0F001A0680143DFF8E00101608B
:100590002078C00759D56068012806D1DFF8D0015E
:1005A0000068800312D401208AE06068022806D126
:1005B000DFF8BC010068800108D4012080E0DFF88A
:1005C000B0010068800701D4012079E0DFF89C01C8
:1005D00001688908890060680143DFF890010160C3
:1005E00000F0E6F80600606801280ED15F48006858
:1005F00010F00C00042828D000F0DAF8801B41F23B
:1006000089318842F2D303205AE0606802280ED173
:100610005648006810F00C00082816D000F0C8F802
:10062000801B41F289318842F2D3032048E04F48D1
:10063000006810F00C0F08D000F0BAF8801B41F2EF
:1006400089318842F3D303203AE05348006810F020
:10065000070085420ED250480068C008C0002843F9
:100660004D4908604C48006810F00700A84201D0CE
:10067000012025E02078400707D53C48016831F487
:10068000E061E0680143394801602078000708D53F
:100690003648006830F46050216950EAC10033499F
:1006A000086000F00EF83D49304A1268C2F30312A8
:1006B000895CC84030490860002000F07FF80020C5
:1006C00070BD00B585B001A83549102200F08AF848
:1006D00034480088ADF800000020002000200020F1
:1006E00000202248016811F00C00042802D00828DC
:1006F00002D017E01F4816E001A8C1F38342805CD6
:10070000C9030CD56946194A1268C2F34042895C94
:10071000184AB2FBF1F201001000484301E02249FF
:10072000484300E0134805B000BD13480068704717
:1007300080B5FFF7FAFF1D490C4A1268C2F3022286
:10074000895CC84002BD81B00B490968C9084FF4F3
:100750007A72B1FBF2F14843009000BF0098411E4D
:1007600000910028F9D101B0704700000410024048
:100770000010024000127A00000000208004424273
:1007800024100240000042421C1002400070004051
:100790002010024060004242002002408010000809
:1007A000701000086A08000800093D00AC1000083D
:1007B00001480068704700BF5800002010B50400D1
:1007C000074800684FF47A71B0FBF1F000F0ABF825
:1007D000002221005FF0FF3000F094F8002010BDEF
:1007E00000000020103A07D330B4B1E83810103AB6
:1007F000A0E83810F9D230BC530724BFB1E8081084
:10080000A0E8081044BF51F8043B40F8043BD2076D
:1008100024BF31F8022B20F8022B44BF0B78037061
:100820007047121F17D35B0009D151F8043B20F821
:10083000023B1B0C121F20F8023BF6D20BE051F8D2
:10084000043B00F8013B1B0A20F8023B1B0C121F63
:1008500000F8013BF3D238BF121D521E24BF11F81D
:10086000013B00F8013BF8D87047010238480068A6
:10087000C0F30220704740B2002808D50901354A6C
:1008800040B210F00F00104400F8041C03E009010E
:10089000314A40B21154704710B410F00700D0F143
:1008A0000703052B01D3042301E0D0F10703041D46
:1008B000072C01D2002000E0C01E012414FA03F32B
:1008C0005B1E19408140012313FA00F0401E1040C6
:1008D000084310BC704780B5411EB1F1807F01D341
:1008E00001200EE0401E1D4908600F215FF0FF301F
:1008F000FFF7C1FF00201A49086007201949086066
:10090000002002BD70B504000D0016000020FFF7A6
:10091000ADFF32002900FFF7BFFF0100200040B209
:10092000FFF7A9FF70BD80B5FFF7D5FF02BD042812
:1009300006D10C48006850F004000A49086005E040
:100940000848006830F0040006490860704700005D
:100950000CED00E018ED00E000E400E014E000E041
:1009600018E000E010E000E080B500F001F801BD03
:1009700070470000F8B4020000200020002000258D
:10098000002000231AE0DFF8B401006830EA040414
:10099000DFF8A801046010E0DFF8A4010068A043BC
:1009A000DFF89C61306048688002ECD5DFF88C018C
:1009B00000680443DFF8840104605B1C102B80F0A6
:1009C000BB8001269E400C683440B442F5D1486893
:1009D000002827D001281AD002281DD003282FD0A4
:1009E000112816D012281AD0564FB8421AD0564F96
:1009F000B84217D0554FB84214D0554FB84211D015
:100A0000544FB8420ED0544FB8420BD01AE0CD68C4
:100A100018E0CD682D1D15E0CD68083512E0CD68D1
:100A20000C350FE08868002801D1042507E08868AC
:100A3000012802D10825166101E00825566101E070
:100A40000025FFE7B4F5807F01D2100000E0101D03
:100A5000B4F5807F01D29E0002E0B3F10806B60033
:100A600007685FF00F0C1CFA06FC37EA0C0715FA52
:100A700006F63E4306604868C0009ED537480068C9
:100A800050F00100354E30603448006810F001002D
:100A90000090009832481E00B60850F826600F27D4
:100AA00013F00300C0B280008740BE432D4882424D
:100AB00001D100270FE02C48824201D101270AE032
:100AC0002A48824201D1022705E02948824201D109
:100AD000032700E0042713F00300C0B28000874022
:100AE0003E431F481F00BF0840F827604868C00306
:100AF00005D52048006820431E4E306004E01D48A4
:100B00000068A0431B4E30604868800305D51A4832
:100B100000682043184E306004E017480068A04386
:100B2000154E30604868C0027FF536AF0448006853
:100B30002043034E306036E7F1BC70470C0401409F
:100B400008040140000011100000121000002110E4
:100B50000000221000003110000032101810024076
:100B60000800014000080140000C01400010014055
:100B700000140140000401400404014000B58FB09E
:100B8000012005905FF4803006900020079001203E
:100B9000099002200C905FF480300D905FF4E0101B
:100BA0000E9005A8FFF7A2FA002801D000F0B0F8D7
:100BB0000F20009002200190002002904FF48060EE
:100BC00003900020049002216846FFF7B7FC00283C
:100BD00001D000F09DF8FFF7A8FD4FF47A71B0FB4B
:100BE000F1F0FFF7A0FE0420FFF7A1FE0022002194
:100BF0005FF0FF30FFF786FE0FB000BD80B502202A
:100C00000090002301224FF40051334800F001F816
:100C100001BD30B585B0314CA0420CD1304C2468B8
:100C200054F004042E4D2C602D4C246814F0040460
:100C30000094009C1EE02B4CA0420CD1284C246850
:100C400054F00804264D2C60254C246814F0080448
:100C50000094009C0EE0204CA0420BD1204C246854
:100C600054F010041E4D2C601D4C246814F0100428
:100C70000094009C089C89B2019102920393049411
:100C800001A9FFF777FE05B030BD80B516481749BA
:100C90000860174815494860002014498860002002
:100CA0001249C8604FF480401049086100200F4984
:100CB000486100200D49886100200C49C86100206E
:100CC0000A490862094800F025F8002801D000F020
:100CD0001FF801BD000000000010014000080140A5
:100CE00018100240000C0140005800400400002091
:100CF000A086010080B5FFF741FFFFF77FFFFFF7F8
:100D0000C4FF00F09DF801490870FEE75C00002078
:100D1000FEE7000010B5040000200020002C01D1E7
:100D2000012088E094F83D00002805D1002084F8D7
:100D30003C00200000F0ACF8242084F83D0020683E
:100D400000684008400021680860FFF7F1FC0100DE
:100D5000DFF8E400B1FBF0F2206842606068DFF881
:100D6000DC30984201D2521C07E04FF496704243A7
:100D70004FF47A70B2FBF0F2521C20680262606895
:100D8000DFF8B82090420ED260684000B1FBF0F06E
:100D90000005000D042801D204202AE0606840000C
:100DA000B1FBF0F025E0A068002805D162680320BF
:100DB0004243B1FBF2F006E0626819204243B1FB06
:100DC000F2F050F48040000501D1012011E0A0684C
:100DD000002805D1626803204243B1FBF2F006E02F
:100DE000626819204243B1FBF2F050F4804050F4A5
:100DF00000402168C861E169206A01432068016000
:100E00002169E0680143206881606169A06901434C
:100E10002068C1602068006850F001002168086007
:100E200000202064202084F83D0000202063002062
:100E300084F83E00002010BD40420F00A186010052
:100E4000002000210021D0210D49096851F4807152
:100E50000B4A11600FE0002100210A490A680A4983
:100E6000096809040A4322F07F4208490A400749F9
:100E70008A4200D10120C0B20028ECD0C0B2704735
:100E80000054004014540040185400400100030076
:100E900000B585B000680E49884215D1C020019088
:100EA000122002900320049001A90A48FFF762FD76
:100EB0000648006850F400100449086003480068C0
:100EC00010F400100090009805B000BD1C10024006
:100ED00000540040000C01401348006850F001002D
:100EE0001149086011480168114801400F4801602C
:100EF0000D4801680F4801400B4801600A4800682E
:100F000030F48020084908600848006830F4FE008A
:100F1000064908605FF41F00074908605FF0006041
:100F200006490860704700000010024004100240AB
:100F30000000FFF8FFFFF6FE0810024008ED00E099
:100F400019E050F8042BD30744BFA9F101039A1804
:100F5000091F0023042942F8043BF9D25FEA817C8F
:100F6000134604D54FF0000CA2F800C09B1CC90723
:100F700044BF0021197050F8041B0029E1D17047CB
:100F800010B450F8041B79B1026843680244083079
:100F9000DC0744BFA9F10104E31852F8044B43F8FD
:100FA000044B091FF9D1ECE710BC704710B5074995
:100FB00079441831064C7C44163404E00A68081D54
:100FC000114488470146A142F8D110BD0800000035
:100FD000280000006DFFFFFF5C00000004000020FF
:100FE000000000009DFFFFFF0400000070010000F2
:100FF00000000020000000007047FEE7FEE7FEE76B
:10100000FEE770477047704780B500F005F8FFF7BE
:10101000ABFC01BD7047000002480068401C01495C
:10102000086070475800002000F00DF8002801D03B
:10103000FFF7BCFFAFF300800020AFF30080FFF7A5
:1010400059FE00F002F80120704700F001B80000DE
:101050000746384600F002F8FBE7000080B5AFF322
:101060000080024A11001820ABBEFBE726000200F8
:1010700002030405060708090A0B0C0D0E0F1010D9
:101080000000000000000000010203040607080938
:101090000148804701480047D90E0008A110000808
:1010A000AFF30080AFF30080FFF7BEFF0000000049
:1010B00001020304FFF7FEBFFFF7FEBFFFF7FEBF0D
:1010C000FFF7FEBFFFF7FEBFFFF7FEBFFFF7FEBF54
:1010D000FFF7FEBFFFF7FEBFFFF7FEBFFFF7FEBF44
:1010E000FFF7FEBFFFF7FEBFFFF7FEBFFFF7FEBF34
:1010F000FFF7FEBFFFF7FEBFFFF7FEBFFFF7FEBF24
:10110000FFF7FEBFFFF7FEBFFFF7FEBFFFF7FEBF13
:10111000FFF7FEBFFFF7FEBFFFF7FEBFFFF7FEBF03
:10112000FFF7FEBFFFF7FEBFFFF7FEBFFFF7FEBFF3
:10113000FFF7FEBFFFF7FEBFFFF7FEBFFFF7FEBFE3
:10114000FFF7FEBFFFF7FEBFFFF7FEBFFFF7FEBFD3
:10115000FFF7FEBFFFF7FEBFFFF7FEBF00A24A0486
:04000005080010A13E
:00000001FF
